:1000000088150020DD020000DB020000DB0200009A
:1000100000000000000000000000000000000000E0
:10002000000000000000000000000000C10B000004
:100030000000000000000000DB020000DB02000006
:10004000DB020000DB020000DB020000DB0200003C
:10005000DB020000DB020000DB020000DB0200002C
:10006000DB020000DB020000DB020000DB0200001C
:10007000DB020000DB020000DB020000DB0200000C
:10008000DB020000DB020000DB020000DB020000FC
:10009000DB020000DB020000DB020000DB020000EC
:1000A000DB020000DB020000DB020000DB020000DC
:1000B000DB020000DB020000DB020000DB020000CC
:1000C000DB020000DB020000DB020000DB020000BC
:1000D000DB020000DB020000DB020000DB020000AC
:1000E000DB020000DB020000DB020000DB0200009C
:1000F000DB020000EFF305833BB1002383F30B88A1
:1001000083F30988023383F314880020010002007E
:10011000030084468EF30088744770B50500EFF342
:1001200005832BB30C2040F61953C0F20003984707
:10013000040050B1280040F61953C0F2000398475C
:1001400070B14519A56060602560200001000200C3
:100150000300844670BC02BC864681F300880C47CD
:10016000200040F65F63C0F2000398470024ECE7EC
:100170000024EAE770B50500EFF3058343B190B1C1
:10018000406840F65F64C0F20004A0472800A04722
:100190000020010002000300844670BC01BC8646BA
:1001A00080F300880447012383F3108883F3908849
:1001B000FEE700B583B0019201AA40F67913C0F2C0
:1001C0000003984703B0010002000300844602BC0C
:1001D000864681F300880C4710B540F63743C0F2DD
:1001E00000039847010002000300844610BC02BCD3
:1001F000864681F300880C4710B540F63B43C0F2B9
:1002000000039847010002000300844610BC02BCB2
:10021000864681F300880C4710B541F2C103C0F255
:1002200000039847010002000300844610BC02BC92
:10023000864681F300880C4710B540F26804C2F28C
:100240000004237863B940F20003C0F200032BB12D
:1002500044F22000C0F2800000E000BF01232370C0
:1002600010BDC04640F20003C0F2000310B54BB110
:1002700040F26C0144F22000C2F20001C0F28000A2
:1002800000E000BF44F22000C0F28000036803B920
:1002900010BD40F20003C0F20003002BF8D09847D5
:1002A000F6E7C04610B540F23D43C0F20003984760
:1002B00043F20023C4F200030022DA664EF2001378
:1002C000CEF2000340F280215A5004315A5041F2DC
:1002D0000903C0F20003984710BDFEE710B542F2D3
:1002E0005C12C0F2000240F20003C2F200039A4224
:1002F00020D01A0040F26803C2F200039A4219D2D9
:1003000040F26803C2F200030333244A9B1A9B089D
:1003100001339B00002240F20001C2F2000151189B
:1003200042F25C10C0F2000010180068086004324D
:100330009A42F0D140F26802C2F2000240F68473A1
:10034000C2F200039A4213D240F26802C2F20002E3
:10035000D34340F68471C2F200018C46634403210A
:100360008B43043394466344002102C29342FCD180
:1003700040F20003C0F200037F2293434EF6005286
:10038000CEF20002936041F26103C0F2000398478D
:1003900040F63F43C0F200039847FEE70400002008
:1003A00030B543F20023C4F200035822995C0125C2
:1003B000A94301242143C9B299543C20195C493A0C
:1003C00091430D3A1143195459215A5CAA432243CF
:1003D000D2B25A541A5C4A390A4011310A431A54AB
:1003E00030BD41F60043C4F200034021AC229950D5
:1003F0000331043A995040F60003C4F20003DA696D
:1004000041390A43DA61704710B540F2E333C0F274
:100410000003984740F20041C4F2002140F6B84082
:10042000C2F20000002240F2B553C0F20003984728
:1004300040F2A133C0F20003984710BD10B540F25E
:100440008563C0F20003984740F20943C0F20003FD
:10045000984710BD70B506000C00150098B1080053
:10046000431E9841C0B242F23401C0F2000134226E
:1004700040F23563C0F20003984733682A00210038
:100480003000984770BD0020EDE770B506000C0005
:10049000150098B10800431E9841C0B242F23401E1
:1004A000C0F200013D2240F23563C0F200039847DC
:1004B00073682A0021003000984770BD0020EDE7E6
:1004C000F8B5CE46474680B504000F009046002898
:1004D00037D0002937D01000431E984142F248011E
:1004E000C0F20001F12240F23563C0F200039847E8
:1004F000083440F6C105C0F200052000A8470028D6
:10050000FBD0002640F6B109C0F2000940F6C10553
:10051000C0F20005B95D2000C8472000A8470028A8
:10052000FBD001364645F5D340F6CB05C0F20005B9
:100530002000A8470028FBD030000CBC904699460C
:10054000F8BD0020CAE70020C8E7F8B5CE46474608
:1005500080B504008846914640B349B31000431E5D
:10056000984142F24801C0F2000140F20C1240F200
:100570003563C0F2000398470026083440F6D505DD
:10058000C0F2000540F6B907C0F200072000A847F6
:100590000028FBD02000B8474346985501364E4509
:1005A000F4D330000CBC90469946F8BD0020D8E743
:1005B0000020D6E770B505000C0008B30800431E04
:1005C0009841C0B242F24801C0F20001342240F228
:1005D0003563C0F20003984728000830210040F638
:1005E0006D03C0F20003984748B940F24B53C0F284
:1005F00000036B6040F2C143C0F200032B6070BD8A
:100600000020DFE710B5040042F24801C0F200010B
:10061000431E9841C0B2532240F23563C0F200033A
:1006200098472000083040F69D03C0F20003984729
:10063000002010BD00B900BE7047020040F28403E4
:10064000C2F200031B683BB140F28403C2F2000314
:10065000186882181A60704740F28403C2F20003DF
:1006600041F28851C2F200011960EDE701204042D9
:10067000704742F200034B60002070470120704732
:100680000020704710B545F20003C4F200135A6809
:100690005A60002040F25373C0F20003984740F2C2
:1006A0000B73C0F20003984740F22373C0F20003BB
:1006B000984740F2FD63C0F20003984740F251733F
:1006C000C0F2000398471F2040F2D563C0F2000338
:1006D000984710BDC30710D541F60043C4F200038C
:1006E00040F20512C0F201021A6241F60042C4F261
:1006F00000027D2153681942FCD1704740F6000387
:10070000C4F2000301221A71704741F20043C4F29F
:100710000003DA6941F600710A40DA6100221A74B6
:10072000704741F20003C4F2000302221A7641F23C
:100730000002C4F20002102113691942FCD041F2F8
:100740000003C4F200031A7E80210A431A76704720
:10075000704740F20043C4F200039B780322134029
:10076000984212D040F20042C4F20002FF2393717B
:10077000937803218B4308401843907040F2004265
:10078000C4F200029379002BFCD0704730B585B0DD
:1007900001AA42F26403C0F2000332CB32C203006A
:1007A000019A82420CD0029A824207D00020039A1A
:1007B0009A4201D005B030BD023002E0012000E0D5
:1007C0000020C0B2F6E7000010B5040040F28D73BF
:1007D000C0F20003984758B142F28801C0F200010C
:1007E00040F24722002040F23563C0F200039847F0
:1007F000E369DB0718D40322E3691A42FCD12368BA
:100800009B070BD523680222934323600132E369DF
:100810001A42FCD10222E3691A42FCD1052323606B
:100820000322E3691A42FCD10122E3691A42FCD196
:100830000423C4F2310323600322E3691A42FCD18A
:10084000C0239B0263600F22E3691A42FCD102239A
:10085000C0F27003A360044BA3810023A373302272
:10086000A354002010BDC046098AFFFF70B50500E3
:100870000C0042F28801C0F20001431E9841C0B250
:10088000BB2240F23563C0F2000398472C60200081
:1008900040F2C973C0F20003984770BD0268136844
:1008A00002210B4313600131D3691942FCD1704717
:1008B000036889B2198570470368188DC0B2704704
:1008C0000368187E0123184070470368187E80076C
:1008D000C00F70470368187E4007C00F704710B5FF
:1008E00040F60113C0F20003984740F60313C0F22C
:1008F0000003984740F61343C0F20003984710BD29
:10090000704740F6C443C2F200031900C831002208
:100910001A609A6014338B42FAD17047F0B5C9B1AE
:10092000D8B140F28805C2F200052C6840F6C446F2
:10093000C2F20006A3001F19BF00B9513B00B44624
:10094000634498605A6001342C60092C04D9052056
:10095000404201E002204042F0BD02204042FBE75D
:10096000EFF314850324254385F31488BFF34F8FD9
:10097000BFF36F8F10470000F0B5DE46574680B5D5
:1009800083B00091019240F28803C2F2000319681B
:10099000002900D19AE040F6C443C2F200031B686C
:1009A000984200D197E0504B002401348C4200D192
:1009B0008CE014331A00143A12688242F5D14C20AC
:1009C00040F6F123C0F200039847070040F2880385
:1009D000C2F200035B68002B00D17EE04822835402
:1009E000190A01328154190C013281541B0E013253
:1009F000835440F28803C2F20003586040F20002C0
:100A0000C2F20002136840F2400B59467B54190AA7
:100A100040F2410A50463954190C4226B955190E74
:100A20004325795501331360EB3040F6F123C0F2D2
:100A3000000398472C30FF304423F854020A013356
:100A4000FA54020C0133FA54020E0133FA541FB463
:100A500010B43C1C0FC4231C10BCF0C340464946D4
:100A600052465C4617C3EFF30880EFF314811F4A28
:100A7000744617C31FBC5B46FB5C5246BA5C12024D
:100A80001A43BB5D1B041A437B5D1B06134303B46F
:100A9000191C001C043802C0043880F3098803BC08
:100AA000A3001C19A40040F6C443C2F200039C46F4
:100AB0006444A2680199009840F66113C0F20003F3
:100AC000984702BC8E461EBC01BC001C03B00CBC87
:100AD00092469B46F0BD002471E740F28803C2F2C3
:100AE000000358608AE7C046D80C0020C20A000004
:100AF00010B540F61953C0F20003984710BD041C0E
:100B00000FCC01B4201C1030F0C8A046A946B24654
:100B1000BB462038F0C81EB410301EC881F30888C8
:100B200082F31488012213439E4610B47047F0B537
:100B3000C64600B58369023B1B78052B36D118B435
:100B4000EFF30983203310331C68251C18BC40F2D6
:100B50008C03C2F200031C6844B340F240084127F2
:100B600042260EE04823E25C0133E35C1B021A4399
:100B70004A23E35C1B0413434B22A45C24061C435E
:100B8000A4B14346E35CE25D12021A43A35D1B0479
:100B90001A434323E35C1B0613439D42E2D120002A
:100BA00040F6FF23C0F200039847DBE704BC904601
:100BB000F0BD000000000000000000000000000088
:100BC00004207146084203D0EFF30980044A10471D
:100BD000EFF30880024A1047C046C046C046C046F0
:100BE0002F0B0000092104220323041C1D1C161CCA
:100BF0000F1C80B440B420B410B405DF7047012846
:100C000000D00320052040F6E533C0F200039847EA
:100C1000F8E710B540F29003C2F200031A6840F6FC
:100C2000FF30C0F2000041F2342140F61D13C0F243
:100C30000003984710BD033070470238704710B565
:100C400040F2A523C0F20003984740F6DF03C0F24C
:100C50000003984748F200031B6883F3888848F232
:100C600004031C68640864002000210022002300A3
:100C700000F0DCF9C046FDE7EFF3058121B106C8BD
:100C800082F30B8881F30988C0460020010002002E
:100C9000030084468EF300887447EFF3058139B171
:100CA000EFF309810160002181F30B8881F309884A
:100CB000C046002001000200030084468EF3008835
:100CC000744710B540F29403C2F200031A688242DE
:100CD0001CD35C681919884203D14168091959600D
:100CE0001800446801198A4214D140F29401C2F2FA
:100CF000000189688A420BD05268121942601A6852
:100D000012680260984200D0186010BD1300DDE741
:100D10000260F7E70260F5E7F8B540F29403C2F22B
:100D200000039B6813B340F69443C2F200035E696C
:100D3000304200D089E0002800D188E00300083369
:100D40005A0702D0072293430833002B00D180E0DA
:100D500040F69442C2F200021769BB4200D97AE021
:100D600040F29402C2F2000214682DE040F29403B3
:100D7000C2F200030C3340F60042590707D0D91DD8
:100D80000722914340F6004C63445A1A0B0040F28C
:100D90009401C2F200010B6000244C609A18083ADA
:100DA0000725AA438A6054601460D11A59601A60FA
:100DB00040F69443C2F20003D96019618022120602
:100DC0005A61B0E722000C0061688B4202D92168A9
:100DD0000029F7D140F29401C2F2000189688C42E7
:100DE0003BD01568216811606268D21A102A0FD9A9
:100DF000E018410705D0012383F3108883F390881E
:100E0000FEE74260636040F6C343C0F200039847C8
:100E100061687F1A40F69442C2F200021761D268FC
:100E2000974204D240F69442C2F20002D7602800F2
:100E300008300E43666000232360430708D0012377
:100E400083F3108883F39088FEE7002000E0002001
:100E5000F8BD0020FCE70020FAE70020F8E710B515
:100E600080B30300083B5B6840F69442C2F2000284
:100E700052691A4205D1012383F3108883F39088C5
:100E8000FEE701000839096829B1012383F31088BE
:100E900083F39088FEE7083893434360012383F38C
:100EA000908840F69443C2F20003426819698C4668
:100EB00062441A6140F6C343C0F20003984700231E
:100EC00083F3908810BDEFF305836BB14EF60C529F
:100ED000CEF2000211684FF6FF73194044F200038E
:100EE000C0F2FA530B43136000200100020003001C
:100EF00084468EF300887447EFF30583ABB14EF65A
:100F00008C53CEF200031A6840F600410A431A607F
:100F10004EF63473CEF200031A6808490A401A608C
:100F200019688022D2040A431A60002001000200DE
:100F3000030084468EF300887447C046FFFFFFDF3E
:100F400010B50B0060B91100180040F6C173C0F273
:100F500000039847002800DB10BD01204042FBE75A
:100F600001204042F8E710B50B00013802280CD8E8
:100F70001100180040F6E573C0F2000398470028FE
:100F800000DB10BD01204042FBE701204042F8E7B2
:100F900070B5060040F20405C2F200052B6898689F
:100FA000002141F2F104C0F20004A0472B68586808
:100FB0000021A04740F6AC43C2F200031E6070BDA2
:100FC00010B5040040F6AC43C2F20003186838B113
:100FD0008AB2210040F28B43C0F20003984710BD53
:100FE0000020FCE710B5040040F6AC43C2F2000359
:100FF000186838B18AB2210040F25543C0F20003AC
:10100000984710BD0020FCE710B540F6B844C2F286
:101010000004200040F20563C0F20003984720005E
:1010200040F69173C0F20003984710BDE0B5454605
:101030004E465746E0B45D4620B425462646274630
:10104000A046A146A246A346A44684F30088A4472E
:1010500020BCAB46E0BCBA46B146A846E0BD0000A5
:1010600070B500250E4B0F4CE41AA410A54209D10F
:10107000002501F063F80C4C0C4BE41AA410A542B7
:1010800007D170BD064AAB009B181B689847013515
:10109000ECE7064AAB009B181B6898470135EEE762
:1010A00048210000482100004C2100004821000098
:1010B00003008218934200D1704719700133F9E799
:1010C0000FB40A4B13B51C6824B1A36913B92000EF
:1010D00000F078FA05AB049AA1682000019300F0B3
:1010E00041FC16BC08BC04B01847C04604000020F0
:1010F0004A424A4110B5520040F2004300F002F863
:1011000010BD0000F0B51D004D4B85B01E680400F9
:101110000F00009226B1B36913B9300000F052FA03
:10112000484B9C424FD17468009B022B05D0012B89
:1011300000D982E0002D00DA7FE02100300000F0CD
:10114000D5F9616B41B123004433994202D030009C
:1011500000F038FB002363630023A3616360A3896D
:101160001B0603D52169300000F02CFBA389364A09
:101170001340A381009B022B59D003AB02AA21008C
:10118000300000F0ADFAA3891843A0812DBB029D69
:10119000280000F00DFB01950700002841D1029BBB
:1011A0000193AB4237D1012040420223A28913436D
:1011B000A3810023A360230047332360236101231D
:1011C000636105B0F0BD214B9C4201D1B468ABE72F
:1011D0001F4B9C42A8D1F468A6E7002FD8D0B36972
:1011E00013B9300000F0EEF9009B012B03D1A38965
:1011F000009A1A43A2810820A3892760184027611A
:101200006561C0B101201840002390B16D42A36018
:10121000A5611800D5E7019800F0CAFA0700002878
:10122000C1D08023A289019D1343A381D7E7002069
:10123000BBE7A560C5E7A060C3E701204042C0E767
:1012400004000020C82000005CF3FFFFE82000003D
:10125000A8200000F8B505000E00140018B183693D
:101260000BB900F0AFF9214B9C422AD16C68A369FD
:10127000A360A3891B072ED5236963B32368226962
:10128000F7B2981A6369F6B2984204DB210028008D
:1012900000F02CF928BBA3680130013BA360236850
:1012A0005A1C22601F706369984204D0A389DB072F
:1012B00019D50A2E17D12100280000F017F990B196
:1012C0000FE00B4B9C4201D1AC68D0E7094B9C422C
:1012D000CDD1EC68CBE72100280000F00DF8002804
:1012E000CCD0012676423000F8BDC046C8200000B0
:1012F000E8200000A8200000344B70B51D680600EF
:101300000C0025B1AB6913B9280000F05BF9304B34
:101310009C420FD16C680C23E25E93B219072CD467
:10132000D90611D409230120336037331343A38135
:10133000404270BD274B9C4201D1AC68EBE7264B85
:101340009C42E8D1EC68E6E75B0712D5616B41B1DE
:1013500023004433994202D0300000F033FA0023D6
:1013600063632422A3899343A381002363602369D9
:1013700023600823A2891343A38123695BB940F248
:10138000802140F20022A3890B40934203D0210028
:10139000300000F0CDF90123A28913408BB1002366
:1013A000A36063695B42A36123690020002BC0D165
:1013B0000C23E25E1306BCD540231343A3810138FE
:1013C000B7E7920700D46369A360EDE7040000204B
:1013D000C8200000E8200000A8200000F7B58A8996
:1013E00005000C0013075ED44B68002B04DC0B6C6B
:1013F000002B01DC0020FEBDE76A002FFAD000239D
:101400002E682B6041F200031A4092B3606DA389ED
:101410005B0705D56368C01A636B0BB1236CC01AF8
:101420000200216A00232800E76AB847A189431C0B
:1014300006D12B681D2B30D82B4ADA40D3072CD588
:101440000023636023692360CB0404D5431C01D1CE
:101450002B6803B96065616B2E600029CAD0230038
:101460004433994202D0280000F0ACF900206063B8
:10147000C1E70123216A2800B847431CC7D12B6864
:10148000002BC4D01D2B01D0162B01D12E60B1E74B
:101490004023A2891343A381ADE740230B430120DE
:1014A000A3814042A7E70F69002FA3D00B680F600C
:1014B000DB1B01930023920700D14B69A360019BC2
:1014C000002B00DC96E7019B3A00216A2800A66AFF
:1014D000B047002803DC4023A2891343DFE7019BC8
:1014E0003F181B1A0193EAE7010040200B6970B511
:1014F00005000C000BB9002070BD18B183690BB951
:1015000000F060F80B4B9C4209D16C680C22A35E82
:10151000002BF0D021002800FFF760FFECE7064B1E
:101520009C4201D1AC68F1E7044B9C42EED1EC68DF
:10153000ECE7C046C8200000E8200000A82000001A
:1015400010B5024900F0ACF810BDC046ED14000023
:10155000002310B50400036043608360818143660B
:10156000C281036143618361190008225C30FFF787
:101570009FFD054B24626362044BA362044BE3624C
:10158000044B236310BDC046B11E0000D91E0000ED
:10159000111F00003D1F000070B568254A1E55430D
:1015A0000E002900743100F057F9040040B1002109
:1015B0002A00016046600C30A0606832FFF778FDB9
:1015C000200070BD836913B5040043BB8364C3640A
:1015D0000365134B134A1B6882620193984201D141
:1015E00001238361200000F01FF86060200000F0FC
:1015F0001BF8A060200000F017F80022E060042132
:101600006068FFF7A5FF01220921A068FFF7A0FF8E
:1016100002221221E068FFF79BFF0123A36113BDA3
:10162000A420000041150000F8B51C4B07001E68FF
:10163000B36913B93000FFF7C5FF4836B468736863
:10164000013B03D5336833B13668F7E70C22A55E5A
:101650006DB16834F4E704213800FFF79DFF306076
:101660000028F1D10C2304003B602000F8BD0123C9
:1016700020005B42E3810233A38165662560A5609B
:10168000656025616561A561082229005C30FFF76E
:101690000FFD6563A563A564E564E6E7A42000008B
:1016A000F7B5040007000026019148340CB930005A
:1016B000FEBD6368A5680093009B013B009301D5C4
:1016C0002468F3E7AB89012B08D90E22AB5E013306
:1016D00004D029003800019B984706436835EBE7A2
:1016E00070B50E001D000E23C95E90B014000029D5
:1016F00007DA00232B60B3891B0611D440F20043A4
:101700000FE001AA00F042FC0028F2DB4FF20002D9
:10171000029B1340054A9B185A4253412B60EDE748
:1017200040230020236010B070BDC04600E0FFFFE2
:10173000F7B502268B8905000C00334206D0230042
:1017400047332360236101236361F7BD01AB6A4620
:10175000FFF7C6FF00990700280000F07DF840B9A8
:101760000C22A35E9A05F0D4032293431E43A68164
:10177000E5E70E4BAB628023A28920601343A3816F
:10178000009B20616361019B63B10E23E15E280031
:1017900000F00EFC30B10322A38993431A00012309
:1017A0001343A381A0893843A081CEE741150000EF
:1017B00010B5034B0100186800F04EF810BDC0468C
:1017C0000400002070B5050081B10C1F2368002BB8
:1017D00000DAE418280000F018FC1E4A1368110013
:1017E0002BB963601460280000F010FC70BDA342A8
:1017F0000BD92268A018834203D118685B6882184D
:10180000226063600C60EEE713005A680AB1A242DE
:10181000FAD919685818A0420BD12068091858182D
:1018200019608242DFD110685268411819605A600D
:10183000D9E7A04202D90C232B60D4E721686018B5
:10184000824203D1106852684118216062605C6076
:10185000C9E7C046B00C0020032370B5CD1C9D43E2
:10186000083506000C2D1CD20C25A9421BD83000CF
:1018700000F0CBFB254A14682100C1B9244C236831
:101880001BB9300000F004FB20602900300000F09C
:10189000FFFA431C2DD10C233000336000F0B6FB5F
:1018A00003E0002DE1DA0C233360002070BD0B68EB
:1018B0005B1B1BD40B2B03D90B60CC18256003E0FA
:1018C0008C420FD163681360300000F09FFB200052
:1018D00007220B30231D9043C31A002BE6D05A4237
:1018E000E250E3E74B6863600C00EDE70C004968E9
:1018F000C3E70323C41C9C43A042DFD0211A30005D
:1019000000F0C6FA431CD9D1C5E7C046B00C002090
:10191000B40C0020936810B5013B9360002B05DAEE
:101920009469A34208DBCBB20A2B05D01368581C7C
:1019300010601970C8B210BDFFF78CFCFBE7F8B55A
:1019400006000F001400D518AC4201D1002007E0BA
:1019500021783A003000FFF7DDFF0134431CF3D15A
:10196000F8BD0000F0B59FB002900F00160005937F
:1019700020B1836904930BB9FFF724FE7E4B9F428D
:101980005BD1029B5F68BB891B0762D53B69002B5B
:101990005FD0002306AD6B6120336B761033AB76DE
:1019A00034002378002B5ED1A31B04936BB1A31BDF
:1019B000320039000298FFF7C2FF431C00D1CBE090
:1019C0006A69049B944663446B612378002B00D1C1
:1019D000C2E00122002352426A6002A95432521826
:1019E00001342B60EB60AB601370AB65634E052276
:1019F0002178300000F0FEFA621C002837D12968F7
:101A0000CB0604D5532302AE20309B1918700B0768
:101A100004D553232B2002AE9B19187023782A2B50
:101A20002DD000210A200126099B2278303A092A6C
:101A300069D900292BD0099329E0514B9F4202D14B
:101A4000029B9F689FE74F4B9F429CD1029BDF68A0
:101A500099E739000298FFF74FFC002899D0012040
:101A600040421FB0F0BD252B9ED0013499E70123E1
:101A7000801B8340296814000B432B60B6E7059B4D
:101A8000181D1B680590002B37DB09931400237881
:101A90002E2B0BD16378621C2A2B3CD1059B023480
:101AA0001A1D1B680592002B32DB0793364E2178F6
:101AB0000322300000F09EFA30B14023801B8340A7
:101AC0002A68013413432B60217806222F48661CB4
:101AD000297600F08FFA002844D02D4B83BB29686B
:101AE000059B0722C90529D59B1893430833059305
:101AF0006B69039A9B186B6152E75B42EB600223B0
:101B00000B432B60C2E7434301349B1831008CE741
:101B100001235B42C9E7002314000A201A000126B2
:101B20006B6021783039092903D9002BBED0079288
:101B3000BCE74243013452183300F2E70733D4E7DD
:101B400005AB00933A00134B2900029800E000BF58
:101B50000390039B0133CBD1BB895B0600D57EE7A5
:101B60000B987EE705AB00933A000A4B29000298D8
:101B700000F07EF8ECE7C046C82000000821000015
:101B8000E8200000A82000000E2100001221000023
:101B9000000000003F190000F7B5150001938A68A6
:101BA0000B6900900C00934200DA130022002B60B6
:101BB000433212780AB101332B6023689B0602D5A9
:101BC0002B6802332B60062723681F403FB3230096
:101BD00043331B785A1E93412268920630D4220068
:101BE000019943320098089EB047431C25D0062334
:101BF00020682A68E16803400025042B03D18D1A70
:101C0000EB43DB171D40A3682269934201DD9B1A59
:101C1000ED180027BD4220D1002010E00137E36815
:101C20002A689B1A9F42D2DA2200012319320199B5
:101C30000098089EB047431CF0D101204042FEBDF1
:101C40003020E1184331087021005A1C45310978D1
:101C5000A218433202331170C1E7220001231A3265
:101C600001990098089EB047431CE6D00137D1E7A0
:101C7000F0B50E0089B00593039004920A7E0C0023
:101C80000E9B43366E2A00D18BE017D8632A2CD0E6
:101C900008D8002A00D195E0582A65D025004235A1
:101CA0002A7029E0642A01D0692AF7D121681A68CC
:101CB000080623D5111D1960136825E0732A00D189
:101CC00084E008D86F2A27D0702AE7D1202209683B
:101CD0000A43226003E0752A1ED0782ADED1220052
:101CE000782145321170684941E00D001A6842358B
:101CF000111D196013682B70012374E04906D9D5B2
:101D0000111D19600023D35E002B02DA2D225B42E5
:101D100032705E490A2215E020681968050603D56D
:101D2000081D18600B6805E04006F9D5081D18600D
:101D30000B689BB255496F2A31D1673A20000025C4
:101D4000433005706068A060002872DB04252768B6
:101D5000AF432760002B6ED13500002877D02500D7
:101D60000B7842352B7072E045310A7047491A688A
:101D70002068151D1D60136805060CD5C20702D525
:101D80002022104320601022002BD7D1202025686C
:101D900085432560D2E74506F0D59BB2EEE70A22DF
:101DA000CCE709681A68080605D5111D1960136883
:101DB00062691A6006E04906F7D5111D19601368BB
:101DC000A28A1A800023350023614EE01A68111D93
:101DD0001960156800216268280000F00BF908B14D
:101DE000401B606063682361002333703DE023691A
:101DF0002A0004990398059DA847431C3FD02368F7
:101E000000259B070FD4079BE068984239DA180039
:101E100037E022000123193204990398059EB04748
:101E2000431C2CD00135E368079A9B1A9D42F0DBD6
:101E3000E9E7002B93D03500B3FBF2F017004743DE
:101E4000DB1BCB5C013D2B7003000028F4D1082A7A
:101E500009D12368DB0706D563682269934202DC57
:101E60003023013D2B70761B2661059B07AA00934A
:101E70002100049B0398FFF78FFE431CB7D101207C
:101E8000404209B0F0BDC0462A21000019210000DF
:101E9000002370B5054C050008002360FEF7CDFB5C
:101EA000431C02D1236803B12B6070BD800F00205A
:101EB00070B50C000E25495F00F0AAF8002803DB7E
:101EC000636D1B18636570BDA389024A1340A3812B
:101ED000F9E7C046FFEFFFFFF8B51F008B8905004B
:101EE0000C001600DB0505D50E23C95E0022022377
:101EF00000F06EF8A389054A28001340A381320040
:101F00000E23E15E3B0000F01FF8F8BDFFEFFFFF7E
:101F100070B50C000E25495F00F05AF8A389421CE9
:101F200003D1054A1340A38170BD41F2000213435F
:101F3000A3816065F8E7C046FFEFFFFF10B50E23F1
:101F4000C95E00F013F810BD70B50500080011005F
:101F50000022054C22601A00FFF705F8431C02D14D
:101F6000236803B12B6070BD800F0020002370B583
:101F7000054C050008002360FEF778FB431C02D1E6
:101F8000236803B12B6070BD800F0020002370B563
:101F9000064C0500080011002360FEF76AFB431C95
:101FA00002D1236803B12B6070BDC046800F0020B2
:101FB000002370B5054C050008002360FEF75EFBAA
:101FC000431C02D1236803B12B6070BD800F002039
:101FD00070B50500080011000022054C22601A00AF
:101FE000FEF74EFB431C02D1236803B12B6070BD8A
:101FF000800F0020C9B28218904201D100207047A2
:1020000003788B42FBD00130F6E770477047000041
:1020100070B50500080011000022054C22601A006E
:10202000FEF78EFF431C02D1236803B12B6070BD05
:10203000800F00202E2E2F68616C2F7372632F6823
:10204000616C5F696F2E63002E2E2F68616C2F7399
:1020500072632F68616C5F75736172745F73796E00
:10206000632E63000004004200080042000C00429E
:102070000000000000000000000000000000000060
:1020800000000000000000002E2E2F68706C2F73DF
:102090006572636F6D2F68706C5F736572636F6DCF
:1020A0002E63000008000020000000000000000077
:1020B0000000000000000000000000000000000020
:1020C0000000000000000000000000000000000010
:1020D0000000000000000000000000000000000000
:1020E00000000000000000000000000000000000F0
:1020F00000000000000000000000000000000000E0
:102100000000000000000000232D302B2000686C30
:102110004C0065666745464700303132333435360A
:102120003738394142434445460030313233343543
:10213000363738396162636465660000F8B5C046B9
:10214000F8BC08BC9E46704765020000F8B5C04662
:0C215000F8BC08BC9E4670473902000035
:10215C000D0000000800002000000000C820000056
:10216C00E8200000A8200000000000000000000093
:10217C000000000000000000000000000000000053
:10218C000000000000000000000000000000000043
:10219C000000000000000000000000000000000033
:1021AC000000000000000000000000000000000023
:0821BC0000000000000000001B
:107C00007FE97FE9F9F75FB97FE97FE9F8F785BA9E
:107C10007FE97FE9F8F7E0BA7FE97FE9F8F7ECBAA6
:107C20007FE97FE9F8F7F8BA7FE97FE9F8F762BA08
:107C30007FE97FE9F9F720B87FE97FE9F9F72DB807
:107C40007FE97FE9F8F7B5BA7FE97FE9F9F754B939
:107C50007FE97FE9F8F78EBA00000000000000001D
:0200000400807A
:104000003F438FB0BB180000802008400100000033
:1040100000000000000000000000000000000000A0
:00000001FF
