S01400004672656552544F532D322D532E7372656367
S214000000001B0020DD020000DB020000DB02000017
S21400001000000000000000000000000000000000DB
S214000020000000000000000000000000310D00008D
S2140000300000000000000000DB020000DB02000001
S214000040DB020000DB020000DB020000DB02000037
S214000050DB020000DB020000DB020000DB02000027
S214000060DB020000DB020000DB020000DB02000017
S214000070DB020000DB020000DB020000DB02000007
S214000080DB020000DB020000DB020000DB020000F7
S214000090DB020000DB020000DB020000DB020000E7
S2140000A0DB020000DB020000DB020000DB020000D7
S2140000B0DB020000DB020000DB020000DB020000C7
S2140000C0DB020000DB020000DB020000DB020000B7
S2140000D0DB020000DB020000DB020000DB020000A7
S2140000E0DB020000DB020000DB020000DB02000097
S2140000F0DB020000EFF305833BB1002383F30B889C
S21400010083F30988023383F3148800200100020079
S214000110030084468EF30088744770B50500EFF33D
S21400012005832BB30C2040F6D363C0F20003984738
S214000130040050B1280040F6D363C0F2000398478D
S21400014070B14519A56060602560200001000200BE
S2140001500300844670BC02BC864681F300880C47C8
S214000160200041F21903C0F2000398470024ECE790
S2140001700024EAE770B50500EFF3058343B190B1BC
S214000180406841F21904C0F20004A0472800A047C6
S2140001900020010002000300844670BC01BC8646B5
S2140001A080F300880447012383F3108883F3908844
S2140001B0FEE700B583B0019201AA40F67553C0F27F
S2140001C00003984703B0010002000300844602BC07
S2140001D0864681F300880C4710B540F6F153C0F20E
S2140001E000039847010002000300844610BC02BCCE
S2140001F0864681F300880C4710B540F6F553C0F2EA
S21400020000039847010002000300844610BC02BCAD
S214000210864681F300880C4710B541F27D23C0F274
S21400022000039847010002000300844610BC02BC8D
S214000230864681F300880C4710B540F26C04C2F283
S2140002400004237863B940F20003C0F200032BB128
S21400025044F22000C0F2800000E000BF01232370BB
S21400026010BDC04640F20003C0F2000310B54BB10B
S21400027040F2700144F22000C2F20001C0F2800099
S21400028000E000BF44F22000C0F28000036803B91B
S21400029010BD40F20003C0F20003002BF8D09847D0
S2140002A0F6E7C04610B540F23D43C0F2000398475B
S2140002B043F20023C4F200030022DA664EF2001373
S2140002C0CEF2000340F280215A5004315A5041F2D7
S2140002D0C513C0F20003984710BDFEE710B542F202
S2140002E01C42C0F2000240F20003C2F200039A422F
S2140002F020D01A0040F26C03C2F200039A4219D2D0
S21400030040F26C03C2F200030333244A9B1A9B0894
S21400031001339B00002240F20001C2F20001511896
S21400032042F21C40C0F20000101800680860043258
S2140003309A42F0D140F26C02C2F2000241F200533F
S214000340C2F200039A4213D240F26C02C2F20002DA
S214000350D34341F20051C2F200018C4663440321AC
S2140003608B43043394466344002102C29342FCD17B
S21400037040F20003C0F200037F2293434EF6005281
S214000380CEF20002936041F21D23C0F200039847AC
S21400039040F6F953C0F200039847FEE70400002039
S2140003A030B543F20023C4F200035822995C0125BD
S2140003B0A94301242143C9B299543C20195C493A07
S2140003C091430D3A1143195459215A5CAA432243CA
S2140003D0D2B25A541A5C4A390A4011310A431A54A6
S2140003E030BD41F60043C4F200034021AC229950D0
S2140003F00331043A995040F60003C4F20003DA6968
S21400040041390A43DA61704710B540F2E333C0F26F
S2140004100003984740F20041C4F2002141F2B800C0
S214000420C2F20000002240F2B553C0F20003984723
S21400043040F2A133C0F20003984710BD10B540F259
S2140004408563C0F20003984740F20943C0F20003F8
S214000450984710BD70B506000C00150098B108004E
S214000460431E9841C0B242F2BC21C0F200013422C1
S21400047040F23563C0F20003984733682A00210033
S2140004803000984770BD0020EDE770B506000C0000
S214000490150098B10800431E9841C0B242F2BC2134
S2140004A0C0F200013D2240F23563C0F200039847D7
S2140004B073682A0021003000984770BD0020EDE7E1
S2140004C0F8B5CE46474680B504000F009046002893
S2140004D037D0002937D01000431E984142F2D02171
S2140004E0C0F20001F12240F23563C0F200039847E3
S2140004F0083440F6C105C0F200052000A8470028D1
S214000500FBD0002640F6B109C0F2000940F6C1054E
S214000510C0F20005B95D2000C8472000A8470028A3
S214000520FBD001364645F5D340F6CB05C0F20005B4
S2140005302000A8470028FBD030000CBC9046994607
S214000540F8BD0020CAE70020C8E7F8B5CE46474603
S21400055080B504008846914640B349B31000431E58
S214000560984142F2D021C0F2000140F20C1240F253
S2140005703563C0F2000398470026083440F6D505D8
S214000580C0F2000540F6B907C0F200072000A847F1
S2140005900028FBD02000B8474346985501364E4504
S2140005A0F4D330000CBC90469946F8BD0020D8E73E
S2140005B00020D6E770B505000C0008B30800431EFF
S2140005C09841C0B242F2D021C0F20001342240F27B
S2140005D03563C0F20003984728000830210040F633
S2140005E06D03C0F20003984748B940F24B53C0F27F
S2140005F000036B6040F2C143C0F200032B6070BD85
S2140006000020DFE710B5040042F2D021C0F200015E
S214000610431E9841C0B2532240F23563C0F2000335
S21400062098472000083040F69D03C0F20003984724
S214000630002010BD00B900BE7047020040F28803DB
S214000640C2F200031B683BB140F28803C2F200030B
S214000650186882181A60704740F28803C2F20003D6
S21400066041F60031C2F200011960EDE70120404278
S214000670704742F200034B6000207047012070472D
S2140006800020704710B545F20003C4F200135A6804
S2140006905A60002040F25373C0F20003984740F2BD
S2140006A00B73C0F20003984740F22373C0F20003B6
S2140006B0984740F2FD63C0F20003984740F251733A
S2140006C0C0F2000398471F2040F2D563C0F2000333
S2140006D0984710BDC30710D541F60043C4F2000387
S2140006E040F20512C0F201021A6241F60042C4F25C
S2140006F000027D2153681942FCD1704740F6000382
S214000700C4F2000301221A71704741F20043C4F29A
S2140007100003DA6941F600710A40DA6100221A74B1
S214000720704741F20003C4F2000302221A7641F237
S2140007300002C4F20002102113691942FCD041F2F3
S2140007400003C4F200031A7E80210A431A7670471B
S214000750704740F20043C4F200039B780322134024
S214000760984212D040F20042C4F20002FF23937176
S214000770937803218B4308401843907040F2004260
S214000780C4F200029379002BFCD0704730B585B0D8
S21400079001AA42F2EC23C0F2000332CB32C20300BD
S2140007A0019A82420CD0029A824207D00020039A15
S2140007B09A4201D005B030BD023002E0012000E0D0
S2140007C00020C0B2F6E7000010B5040040F28D73BA
S2140007D0C0F20003984758B142F21031C0F200014F
S2140007E040F24722002040F23563C0F200039847EB
S2140007F0E369DB0718D40322E3691A42FCD12368B5
S2140008009B070BD523680222934323600132E369DA
S2140008101A42FCD10222E3691A42FCD10523236066
S2140008200322E3691A42FCD10122E3691A42FCD191
S2140008300423C4F2310323600322E3691A42FCD185
S214000840C0239B0263600F22E3691A42FCD1022395
S214000850C0F27003A360044BA3810023A37330226D
S214000860A354002010BDC046098AFFFF70B50500DE
S2140008700C0042F21031C0F20001431E9841C0B293
S214000880BB2240F23563C0F2000398472C6020007C
S21400089040F2C973C0F20003984770BD026813683F
S2140008A002210B4313600131D3691942FCD1704712
S2140008B0036889B2198570470368188DC0B27047FF
S2140008C00368187E0123184070470368187E800767
S2140008D0C00F70470368187E4007C00F704710B5FA
S2140008E040F60113C0F20003984740F60313C0F227
S2140008F00003984740F6CD53C0F20003984710BD5A
S214000900704741F2C403C2F200031900C831002246
S2140009101A609A6014338B42FAD17047F0B5C9B1A9
S214000920D8B140F28C05C2F200052C6841F2C4062C
S214000930C2F20006A3001F19BF00B9513B00B4461F
S214000940634498605A6001342C60092C04D9052051
S214000950404201E002204042F0BD02204042FBE758
S2140009601D1F40F20004C2F200042468013C2C6003
S214000970043D00242C60043D802676042E60043D51
S21400098096682E60043D2C60043D2C60043D2C606F
S2140009901C00203C926822601A00243A1160283B12
S2140009A01860032252421D1C85F30988151CAE46AA
S2140009B0EFF314850324254385F31488BFF34F8F84
S2140009C0BFF36F8F7047F8B50400502040F6194308
S2140009D0C0F2000398472060002835D040F200039C
S2140009E0C2F200035A684C23D35C4D21515C0902C5
S2140009F019434E23D35C1B0419434F23D35C1B06B9
S214000A000B43A3B14C27C355190A4D268155190C23
S214000A104E2541551B0E4F2143542368D355180AC3
S214000A209055180C50551B0E53540020F8BD4C23FF
S214000A30D054010A0133D154010C0133D154000EB5
S214000A400133D0540020F1E70220EFE7F8B58446E2
S214000A500468002C4BD040F20003C2F200035B682F
S214000A600220002B42D04C229A5C4D21595C090290
S214000A7011434E229A5C120411434F229A5C1206CE
S214000A800A43944214D04C204D274E264F256AB177
S214000A90135CD15D09021943935D1B041943535D32
S214000AA01B060B439C4204D01A00F0E702201DE010
S214000AB01A004C25635D4D20215C090219434E2621
S214000AC0A35D1B0419434F27E35D1B060B435355D9
S214000AD0190A1154190C91551B0ED3556346186804
S214000AE040F62743C0F2000398470020F8BD0220D6
S214000AF0FCE70000F0B583B00D00160040F28C0352
S214000B00C2F200031968002900D17BE041F2C40359
S214000B10C2F200031B68984200D176E03C4B0024EA
S214000B2001348C4200D16DE014331A00143A126876
S214000B308242F5D101A840F6C713C0F200039847D9
S214000B4040F20002C2F200021368019944200B54DE
S214000B501F0A01300F541F0C01300F541F0E0130B6
S214000B600F540133136040F2004040F61943C0F2C0
S214000B70000398470700019B48229854010A013257
S214000B809954010C01329954010E013299543FB424
S214000B9030B41C1C0FC4231C30BCF0C3404649466E
S214000BA052465C4617C3EFF308801830EFF3148103
S214000BB0184A012422437446EFF3098537C33FBC25
S214000BC040F20043C3180C3A9343A2001219920055
S214000BD041F2C401C2F200018C4662443100280092
S214000BE040F66114C0F20004A047041C380040F62A
S214000BF02743C0F20003984701A840F64D23C0F2F1
S214000C0000039847200003B0F0BD002492E7C046DA
S214000C10D8100020EA0B000010B540F6D363C0F2EF
S214000C200003984710BD10B541F21903C0F2000347
S214000C30984710BD041C30340FCC80F3088881F32D
S214000C40148801210B439E4608CC83F3098804B41C
S214000C50443C0FCC01B4201C1030F0C8A046A94676
S214000C60B246BB462038F0C801BC00BDF8B5DE462B
S214000C7057464E464546E0B5036A9946436A9A4645
S214000C80836A9B468369023B1B78042B41D0052B65
S214000C9047D1EFF309835D6C40F20403C2F2000310
S214000CA01A684C23D45C0133D35C1B0223434E21C9
S214000CB0545C240423430131545C24061C4344B38F
S214000CC040F24408452746260EE04C23E25C0133FA
S214000CD0E35C1B021A434E23E35C1B0413434F22C0
S214000CE0A45C24061C43A4B14346E35CE25D120206
S214000CF01A43A35D1B041A434723E35C1B061343F6
S214000D009D42E2D1200040F63543C0F200039847EA
S214000D10DBE75A465146484640F6F523C0F2000344
S214000D2098473CBC90469946A246AB46F8BD0000A4
S214000D3004207146084203D0EFF30980044A1047A6
S214000D40EFF30880024A1047C046C046C046C04679
S214000D506D0C0000092104220323F0B4041C1D1CA2
S214000D60161C0F1C80B440B420B410B405DF04B0C9
S214000D70F0BC70470023F0B4041C0D1C161C1F1C8E
S214000D8080B440B420B410B404DF04B0F0BC7047A4
S214000D90012807D002280FD0052040F65553C0F290
S214000DA00003984742F22C30C0F2000041F265334F
S214000DB0C0F200039847EFE742F24830C0F2000066
S214000DC041F26533C0F200039847E5E710B540F2FC
S214000DD09003C2F200031A6840F69150C0F2000079
S214000DE041F2342140F61D13C0F20003984710BDAF
S214000DF0033070470238704710B540F2A523C0F2A2
S214000E000003984740F6DF03C0F20003984748F215
S214000E1000031B6883F3888848F204031C68640890
S214000E206400200021002200230000F0DDF9C04607
S214000E30FDE7EFF3058121B106C882F30B8881F345
S214000E400988C046002001000200030084468EF395
S214000E5000887447EFF3058139B1EFF3098101602B
S214000E60002181F30B8881F30988C0460020010029
S214000E700200030084468EF30088744710B540F2E3
S214000E809403C2F200031A6882421CD35C681919E4
S214000E90884203D14168091959601800446801194D
S214000EA08A4214D140F29401C2F2000189688A4253
S214000EB00BD05268121942601A6812680260984293
S214000EC000D0186010BD1300DDE70260F7E702608F
S214000ED0F5E7F8B540F29403C2F200039B6813B33B
S214000EE041F29403C2F200035E69304200D089E00A
S214000EF0002800D188E0030008335A0702D00722F2
S214000F0093430833002B00D180E041F29402C2F2F2
S214000F1000021769BB4200D97AE040F29402C2F29E
S214000F20000214682DE040F29403C2F200030C3372
S214000F3041F20002590707D0D91D0722914341F21A
S214000F40000C63445A1A0B0040F29401C2F20001EE
S214000F500B6000244C609A18083A0725AA438A605A
S214000F6054601460D11A59601A6041F29403C2F2B8
S214000F700003D9601961802212065A61B0E7220088
S214000F800C0061688B4202D921680029F7D140F233
S214000F909401C2F2000189688C423BD01568216832
S214000FA011606268D21A102A0FD9E018410705D0DE
S214000FB0012383F3108883F39088FEE74260636022
S214000FC040F67D63C0F20003984761687F1A41F2DD
S214000FD09402C2F200021761D268974204D241F22C
S214000FE09402C2F20002D760280008300E43666002
S214000FF000232360430708D0012383F3108883F37C
S2140010009088FEE7002000E00020F8BD0020FCE706
S2140010100020FAE70020F8E710B580B30300083B8D
S2140010205B6841F29402C2F2000252691A4205D18C
S214001030012383F3108883F39088FEE701000839C4
S214001040096829B1012383F3108883F39088FEE7AB
S214001050083893434360012383F3908841F2940356
S214001060C2F20003426819698C4662441A6140F66F
S2140010707D63C0F200039847002383F3908810BD79
S214001080EFF305836BB14EF60C52CEF200021168F8
S2140010904FF6FF73194044F20003C0F2FA530B43B5
S2140010A01360002001000200030084468EF30088CF
S2140010B074470000EFF30583ABB14EF68C53CEF2C7
S2140010C000031A6840F600410A431A604EF634736D
S2140010D0CEF200031A6808490A401A60196880228E
S2140010E0D2040A431A60002001000200030084466E
S2140010F08EF300887447C046FFFFFFDF10B50B0075
S21400110060B91100180041F27D13C0F20003984741
S214001110002800DB10BD01204042FBE701204042D2
S214001120F8E710B50B00013802280CD8110018009B
S21400113041F2A113C0F200039847002800DB10BD5F
S21400114001204042FBE701204042F8E770B5060068
S21400115040F20805C2F200052B689868002141F2AB
S2140011607934C0F20004A0472B6858680021A047D5
S21400117041F2AC03C2F200031E6070BD10B504005D
S21400118041F2AC03C2F20003186838B18AB22100FB
S21400119040F28B43C0F20003984710BD0020FCE7E6
S2140011A010B5040041F2AC03C2F20003186838B16F
S2140011B08AB2210040F25543C0F20003984710BDA2
S2140011C00020FCE710B541F2B804C2F2000420008B
S2140011D040F20563C0F200039847200041F24D1329
S2140011E0C0F20003984710BDE0B545464E46574648
S2140011F0E0B45D4620B4254626462746A046A146CE
S214001200A246A346A44684F30088A44720BCAB4667
S214001210E0BCBA46B146A846E0BD000070B5002561
S2140012200E4B0F4CE41AA410A54209D1002501F07C
S214001230E5F80C4C0C4BE41AA410A54207D170BD7F
S214001240064AAB009B181B6898470135ECE7064A30
S214001250AB009B181B6898470135EEE70824000092
S214001260082400000C240000082400000300821854
S214001270934200D1704719700133F9E70FB40A4B57
S21400128013B51C6824B1A36913B9200000F0DEFA78
S21400129005AB049AA1682000019300F0A7FC16BCD9
S2140012A008BC04B01847C0460800002070B505000A
S2140012B00E0018B183690BB900F0C8FAAB69AC68C8
S2140012C013B9280000F0C2FA234B9C420DD16C687B
S2140012D0A3891B0701D52369FBB92100280000F06C
S2140012E04FF9D0B10120404270BD1C4B9C4201D149
S2140012F0AC68EDE71A4B9C42EAD1EC68E8E7013BA4
S2140013000136A360002B04DAA269934216DB0A2991
S21400131014D023685A1C226019703178A3680029FB
S214001320EDD1013BA360002B0FDA22000A31280022
S21400133000F0D4F8431CD5D00A20D5E722002800B8
S21400134000F0CCF8431CE8D1CCE70A2023685A1CEE
S21400135022601870C8E7C04688230000A823000053
S2140013606823000010B5034B01001868FFF79EFFC6
S21400137010BDC046080000204A424A4110B552003F
S21400138040F2004300F002F810BD0000F0B51D006A
S2140013904D4B85B01E6804000F00009226B1B3695D
S2140013A013B9300000F052FA484B9C424FD1746893
S2140013B0009B022B05D0012B00D982E0002D00DA1D
S2140013C07FE02100300000F0D5F9616B41B12300C9
S2140013D04433994202D0300000F038FB00236363A8
S2140013E00023A3616360A3891B0603D5216930002F
S2140013F000F02CFBA389364A1340A381009B022BE6
S21400140059D003AB02AA2100300000F0ADFAA38940
S2140014101843A0812DBB029D280000F00DFB01950E
S2140014200700002841D1029B0193AB4237D101202F
S21400143040420223A2891343A3810023A360230012
S2140014404733236023610123636105B0F0BD214B60
S2140014509C4201D1B468ABE71F4B9C42A8D1F4680C
S214001460A6E7002FD8D0B36913B9300000F0EEF924
S214001470009B012B03D1A389009A1A43A28108205E
S214001480A3892760184027616561C0B10120184014
S214001490002390B16D42A360A5611800D5E70198BE
S2140014A000F0CAFA07000028C1D08023A289019D57
S2140014B01343A381D7E70020BBE7A560C5E7A0607C
S2140014C0C3E701204042C0E7080000208823000050
S2140014D05CF3FFFFA823000068230000F8B50500B2
S2140014E00E00140018B183690BB900F0AFF9214B58
S2140014F09C422AD16C68A369A360A3891B072ED5DA
S214001500236963B323682269F7B2981A6369F6B24F
S214001510984204DB2100280000F02CF928BBA368C1
S2140015200130013BA36023685A1C22601F70636968
S214001530984204D0A389DB0719D50A2E17D12100BB
S214001540280000F017F990B10FE00B4B9C4201D138
S214001550AC68D0E7094B9C42CDD1EC68CBE72100C4
S214001560280000F00DF80028CCD001267642300086
S214001570F8BDC04688230000A823000068230000AA
S214001580344B70B51D6806000C0025B1AB6913B965
S214001590280000F05BF9304B9C420FD16C680C239E
S2140015A0E25E93B219072CD4D90611D40923012080
S2140015B0336037331343A381404270BD274B9C42B0
S2140015C001D1AC68EBE7264B9C42E8D1EC68E6E735
S2140015D05B0712D5616B41B123004433994202D0B8
S2140015E0300000F033FA002363632422A389934378
S2140015F0A38100236360236923600823A289134321
S214001600A38123695BB940F2802140F20022A389BE
S2140016100B40934203D02100300000F0CDF90123A7
S214001620A28913408BB10023A36063695B42A36168
S21400163023690020002BC0D10C23E25E1306BCD524
S21400164040231343A3810138B7E7920700D46369A8
S214001650A360EDE70800002088230000A823000010
S21400166068230000F7B58A8905000C0013075ED4CE
S2140016704B68002B04DC0B6C002B01DC0020FEBD4D
S214001680E76A002FFAD000232E682B6041F2000391
S2140016901A4092B3606DA3895B0705D56368C01ACC
S2140016A0636B0BB1236CC01A0200216A002328006A
S2140016B0E76AB847A189431C06D12B681D2B30D892
S2140016C02B4ADA40D3072CD50023636023692360B6
S2140016D0CB0404D5431C01D12B6803B96065616B4C
S2140016E02E600029CAD023004433994202D0280035
S2140016F000F0ACF900206063C1E70123216A2800EE
S214001700B847431CC7D12B68002BC4D01D2B01D073
S214001710162B01D12E60B1E74023A2891343A38183
S214001720ADE740230B430120A3814042A7E70F69A2
S214001730002FA3D00B680F60DB1B019300239207DA
S21400174000D14B69A360019B002B00DC96E7019B50
S2140017503A00216A2800A66AB047002803DC402326
S214001760A2891343DFE7019B3F181B1A0193EAE7A0
S214001770010040200B6970B505000C000BB9002075
S21400178070BD18B183690BB900F060F80B4B9C4232
S21400179009D16C680C22A35E002BF0D02100280033
S2140017A0FFF760FFECE7064B9C4201D1AC68F1E71F
S2140017B0044B9C42EED1EC68ECE7C0468823000060
S2140017C0A82300006823000010B5024900F0ACF81A
S2140017D010BDC04675170000002310B50400036056
S2140017E04360836081814366C28103614361836194
S2140017F0190008225C30FFF739FD054B246263624E
S214001800044BA362044BE362044B236310BDC04643
S214001810392100006121000099210000C521000047
S21400182070B568254A1E55430E002900743100F035
S21400183057F9040040B100212A00016046600C30D0
S214001840A0606832FFF712FD200070BD836913B5F3
S214001850040043BB8364C3640365134B134A1B68CD
S21400186082620193984201D101238361200000F037
S2140018701FF86060200000F01BF8A060200000F059
S21400188017F80022E06004216068FFF7A5FF012238
S2140018900921A068FFF7A0FF02221221E068FFF7E7
S2140018A09BFF0123A36113BD64230000C91700003A
S2140018B0F8B51C4B07001E68B36913B93000FFF774
S2140018C0C5FF4836B4687368013B03D5336833B147
S2140018D03668F7E70C22A55E6DB16834F4E704219C
S2140018E03800FFF79DFF30600028F1D10C2304007C
S2140018F03B602000F8BD012320005B42E3810233F9
S214001900A38165662560A560656025616561A56142
S214001910082229005C30FFF7A9FC6563A563A5646F
S214001920E564E6E764230000F7B504000700002638
S214001930019148340CB93000FEBD6368A568009379
S214001940009B013B009301D52468F3E7AB89012B8C
S21400195008D90E22AB5E013304D029003800019B63
S214001960984706436835EBE770B50E001D000E235A
S214001970C95E90B01400002907DA00232B60B389F3
S2140019801B0611D440F200430FE001AA00F042FC0F
S2140019900028F2DB4FF20002029B1340054A9B1818
S2140019A05A4253412B60EDE740230020236010B0DD
S2140019B070BDC04600E0FFFFF7B502268B89050024
S2140019C00C00334206D023004733236023610123F3
S2140019D06361F7BD01AB6A46FFF7C6FF00990700D3
S2140019E0280000F07DF840B90C22A35E9A05F0D4DA
S2140019F0032293431E43A681E5E70E4BAB6280238A
S214001A00A28920601343A381009B20616361019B30
S214001A1063B10E23E15E280000F00EFC30B1032215
S214001A20A38993431A0001231343A381A089384353
S214001A30A081CEE7C917000010B5034B0100186857
S214001A4000F04EF810BDC0460800002070B5050036
S214001A5081B10C1F2368002B00DAE418280000F080
S214001A6018FC1E4A136811002BB963601460280026
S214001A7000F010FC70BDA3420BD92268A018834268
S214001A8003D118685B688218226063600C60EEE71A
S214001A9013005A680AB1A242FAD919685818A04227
S214001AA00BD120680918581819608242DFD11068D7
S214001AB05268411819605A60D9E7A04202D90C232F
S214001AC02B60D4E721686018824203D11068526800
S214001AD04118216062605C60C9E7C046B010002013
S214001AE0032370B5CD1C9D43083506000C2D1CD273
S214001AF00C25A9421BD8300000F0CBFB254A146801
S214001B002100C1B9244C23681BB9300000F004FB47
S214001B1020602900300000F0FFFA431C2DD10C2372
S214001B203000336000F0B6FB03E0002DE1DA0C2352
S214001B303360002070BD0B685B1B1BD40B2B03D9D6
S214001B400B60CC18256003E08C420FD163681360ED
S214001B50300000F09FFB200007220B30231D90432F
S214001B60C31A002BE6D05A42E250E3E74B686360A4
S214001B700C00EDE70C004968C3E70323C41C9C4334
S214001B80A042DFD0211A300000F0C6FA431CD9D19B
S214001B90C5E7C046B0100020B4100020936810B50A
S214001BA0013B9360002B05DA9469A34208DBCBB2B5
S214001BB00A2B05D01368581C10601970C8B210BDE7
S214001BC0FFF78CFCFBE7F8B506000F001400D518ED
S214001BD0AC4201D1002007E021783A003000FFF740
S214001BE0DDFF0134431CF3D1F8BD0000F0B59FB013
S214001BF002900F001600059320B1836904930BB979
S214001C00FFF724FE7E4B9F425BD1029B5F68BB8939
S214001C101B0762D53B69002B5FD0002306AD6B61C6
S214001C2020336B761033AB7634002378002B5ED1EE
S214001C30A31B04936BB1A31B320039000298FFF775
S214001C40C2FF431C00D1CBE06A69049B9446634400
S214001C506B612378002B00D1C2E0012200235242A0
S214001C606A6002A95432521801342B60EB60AB60F4
S214001C701370AB65634E05222178300000F0FEFA43
S214001C80621C002837D12968CB0604D5532302AE40
S214001C9020309B1918700B0704D553232B2002AE57
S214001CA09B19187023782A2B2DD000210A20012694
S214001CB0099B2278303A092A69D900292BD0099342
S214001CC029E0514B9F4202D1029B9F689FE74F4BF2
S214001CD09F429CD1029BDF6899E739000298FFF784
S214001CE04FFC002899D0012040421FB0F0BD252BA4
S214001CF09ED0013499E70123801B83402968140095
S214001D000B432B60B6E7059B181D1B680590002B40
S214001D1037DB0993140023782E2B0BD16378621CD3
S214001D202A2B3CD1059B02341A1D1B680592002BFA
S214001D3032DB0793364E21780322300000F09EFAFD
S214001D4030B14023801B83402A68013413432B6044
S214001D50217806222F48661C297600F08FFA002884
S214001D6044D02D4B83BB2968059B0722C90529D57E
S214001D709B189343083305936B69039A9B186B6112
S214001D8052E75B42EB6002230B432B60C2E7434300
S214001D9001349B1831008CE701235B42C9E700231E
S214001DA014000A201A0001266B60217830390929B0
S214001DB003D9002BBED00792BCE742430134521829
S214001DC03300F2E70733D4E705AB00933A00134B32
S214001DD02900029800E000BF0390039B0133CBD19B
S214001DE0BB895B0600D57EE70B987EE705AB0093C4
S214001DF03A000A4B2900029800F07EF8ECE7C0464D
S214001E0088230000C8230000A823000068230000E1
S214001E10CE230000D223000000000000C71B0000F5
S214001E20F7B5150001938A680B6900900C00934281
S214001E3000DA130022002B60433212780AB1013315
S214001E402B6023689B0602D52B6802332B6006277F
S214001E5023681F403FB3230043331B785A1E934129
S214001E602268920630D42200019943320098089ED8
S214001E70B047431C25D0062320682A68E168034043
S214001E800025042B03D18D1AEB43DB171D40A368F6
S214001E902269934201DD9B1AED180027BD4220D12E
S214001EA0002010E00137E3682A689B1A9F42D2DAC6
S214001EB022000123193201990098089EB047431C5E
S214001EC0F0D101204042FEBD3020E11843310870B9
S214001ED021005A1C45310978A2184332023311708A
S214001EE0C1E7220001231A3201990098089EB047E4
S214001EF0431CE6D00137D1E7F0B50E0089B0059354
S214001F00039004920A7E0C000E9B43366E2A00D184
S214001F108BE017D8632A2CD008D8002A00D195E089
S214001F20582A65D0250042352A7029E0642A01D057
S214001F30692AF7D121681A68080623D5111D196089
S214001F40136825E0732A00D184E008D86F2A27D0CA
S214001F50702AE7D1202209680A43226003E0752A26
S214001F601ED0782ADED122007821453211706849C9
S214001F7041E00D001A684235111D196013682B7078
S214001F80012374E04906D9D5111D19600023D35EDC
S214001F90002B02DA2D225B4232705E490A2215E0DF
S214001FA020681968050603D5081D18600B6805E04B
S214001FB04006F9D5081D18600B689BB255496F2A74
S214001FC031D1673A20000025433005706068A06074
S214001FD0002872DB04252768AF432760002B6ED1EC
S214001FE03500002877D025000B7842352B7072E03C
S214001FF045310A7047491A682068151D1D60136828
S21400200005060CD5C20702D52022104320601022F8
S214002010002BD7D12020256885432560D2E74506CA
S214002020F0D59BB2EEE70A22CCE709681A680806E4
S21400203005D5111D1960136862691A6006E0490625
S214002040F7D5111D19601368A28A1A80002335007F
S21400205023614EE01A68111D196015680021626838
S214002060280000F00BF908B1401B6060636823612C
S214002070002333703DE023692A0004990398059DE8
S214002080A847431C3FD0236800259B070FD4079B17
S214002090E068984239DA180037E022000123193246
S2140020A004990398059EB047431C2CD00135E3687D
S2140020B0079A9B1A9D42F0DBE9E7002B93D0350088
S2140020C0B3FBF2F017004743DB1BCB5C013D2B70E4
S2140020D003000028F4D1082A09D12368DB0706D5B7
S2140020E063682269934202DC3023013D2B70761B25
S2140020F02661059B07AA00932100049B0398FFF71F
S2140021008FFE431CB7D10120404209B0F0BDC04647
S214002110EA230000D9230000002370B5054C050013
S21400212008002360FEF789FA431C02D1236803B136
S2140021302B6070BDFC14002070B50C000E25495FA6
S21400214000F0AAF8002803DB636D1B18636570BDFA
S214002150A389024A1340A381F9E7C046FFEFFFFFB9
S214002160F8B51F008B8905000C001600DB0505D5A9
S2140021700E23C95E0022022300F06EF8A389054AEA
S21400218028001340A38132000E23E15E3B0000F0DE
S2140021901FF8F8BDFFEFFFFF70B50C000E25495F76
S2140021A000F05AF8A389421C03D1054A1340A381C4
S2140021B070BD41F200021343A3816065F8E7C04694
S2140021C0FFEFFFFF10B50E23C95E00F013F810BD39
S2140021D070B50500080011000022054C22601A00A8
S2140021E0FEF79FFF431C02D1236803B12B6070BD2E
S2140021F0FC140020002370B5054C05000800236081
S214002200FEF734FA431C02D1236803B12B6070BD7D
S214002210FC140020002370B5064C050008001100D1
S2140022202360FEF726FA431C02D1236803B12B6015
S21400223070BDC046FC140020002370B5054C050098
S21400224008002360FEF71AFA431C02D1236803B184
S2140022502B6070BDFC14002070B50500080011004E
S2140022600022054C22601A00FEF70AFA431C02D12F
S214002270236803B12B6070BDFC140020C9B282181D
S214002280904201D10020704703788B42FBD001308A
S214002290F6E770477047000070B5050008001100AB
S2140022A00022054C22601A00FEF728FF431C02D1CC
S2140022B0236803B12B6070BDFC1400202E2E2F68FF
S2140022C0616C2F7372632F68616C5F696F2E630099
S2140022D02E2E2F68616C2F7372632F68616C5F758A
S2140022E0736172745F73796E632E6300000400423C
S2140022F000080042000C0042000000000000000041
S21400230000000000000000000000000000000000C8
S2140023102E2E2F68706C2F736572636F6D2F68702A
S2140023206C5F736572636F6D2E6300006C206D20AA
S21400233074657374206D6F64756C65206F662070AD
S214002340696E670D000000006C206D207465737464
S214002350206D6F64756C65206F6620706F6E670DFC
S214002360000000000C00002000000000000000003C
S2140023700000000000000000000000000000000058
S2140023800000000000000000000000000000000048
S2140023900000000000000000000000000000000038
S2140023A00000000000000000000000000000000028
S2140023B00000000000000000000000000000000018
S2140023C00000000000000000232D302B2000686C69
S2140023D04C00656667454647003031323334353643
S2140023E0373839414243444546003031323334357C
S2140023F0363738396162636465660000F8B5C046F2
S214002400F8BC08BC9E46704765020000F8B5C0469A
S210002410F8BC08BC9E467047390200006D
S21400241C010000008C1100200C00002000000000C1
S21400242C88230000A823000068230000000000009A
S21400243C000000000000000000000000000000008B
S21400244C000000000000000000000000000000007B
S21400245C000000000000000000000000000000006B
S21400246C000000000000000000000000000000005B
S21000247C0000000000000000000000004F
S214007C007FE97FE9F9F73CBA7FE97FE9F8F785BABB
S214007C107FE97FE9F8F7E0BA7FE97FE9F8F7ECBAA1
S214007C207FE97FE9F8F7F8BA7FE97FE9F8F762BA03
S214007C307FE97FE9F9F7FDB87FE97FE9F9F70AB947
S214007C407FE97FE9F8F7B5BA7FE97FE9F9F732BA55
S214007C507FE97FE9F8F78EBA000000000000000018
S2148040003F438FB0BB1800008020084001000000AE
S214804010000000000000000000000000000000001B
S804000000FB
