:1080000028380020718100006F8100006F8100001E
:108010000000000000000000000000000000000060
:108020000000000000000000000000004189000086
:108030000000000000000000A18800005186000040
:108040006F8100006F8100006F8100006F81000070
:108050006F8100006F8100006F8100006F81000060
:108060006F8100006F8100006F8100006F81000050
:108070006F8100006F8100006F8100006F81000040
:108080006F8100006F8100006F8100006F81000030
:108090006F8100006F8100006F8100006F81000020
:1080A0006F8100006F8100006F8100006F81000010
:1080B0006F8100006F8100006F8100006F81000000
:1080C0006F8100006F8100006F8100006F810000F0
:1080D0006F8100006F8100006F8100006F810000E0
:1080E0006F8100006F8100006F8100006F810000D0
:1080F0006F81000010B542F22004C2F20004237820
:1081000063B940F20003C0F200032BB149F25C20D6
:10811000C0F2000000E000BF0123237010BDC04684
:1081200040F20003C0F2000310B54BB142F224014B
:1081300049F25C20C2F20001C0F2000000E000BF82
:1081400049F25C20C0F20000036803B910BD40F2A0
:108150000003C0F20003002BF8D09847F6E7C046B2
:1081600010B548F23523C0F20003984710BDFEE772
:1081700010B549F25C22C0F2000242F20003C2F2E2
:1081800000039A4220D01A0042F20803C2F2000310
:108190009A4219D242F20803C2F200030333244A7E
:1081A0009B1A9B0801339B00002242F20001C2F29D
:1081B0000001511849F25C20C0F20000101800685C
:1081C000086004329A42F0D142F22002C2F2000268
:1081D00043F22423C2F200039A4213D242F2200255
:1081E000C2F20002D34343F22421C2F200018C46C2
:1081F000634403218B43043394466344002102C249
:108200009342FCD148F20003C0F200037F22934363
:108210004EF60052CEF20002936049F2A913C0F26A
:108220000003984748F23153C0F200039847FEE735
:1082300004200020704710B542F23C03C2F2000354
:108240001C6848F27D43C0F20003984701002000FB
:1082500048F29543C0F20003984710BD10B542F2B2
:108260004003C2F200031A6882421CD35C681919E9
:10827000884203D1416809195960180044680119FE
:108280008A4214D142F24001C2F2000189688A4256
:108290000BD05268121942601A6812680260984244
:1082A00000D0186010BD1300DDE70260F7E7026040
:1082B000F5E7F8B5040048F66353C0F200039847A9
:1082C00042F24003C2F200039B680BB342F6404304
:1082D000C2F200035E69344200D08BE0002C00D172
:1082E0008FE0230008335A0702D007229343083354
:1082F000002B00D17EE042F64042C2F20002156936
:10830000AB4277D842F24002C2F2000214682DE07C
:1083100042F24003C2F200030C3340F60042590718
:1083200007D0D91D0722914340F6004C63445A1AE6
:108330000B0042F24001C2F200010B6000204860D5
:108340009A18083A0725AA438A6050601060D11A2B
:1083500059601A6042F64043C2F20003D9601961C5
:10836000802212065A61B1E722000C0061688B423C
:1083700002D921680029F7D142F24001C2F200017E
:1083800089688C4236D01768216811606268D21AF9
:10839000102A0BD9E018410701D072B6FEE74260FF
:1083A000636048F25D23C0F20003984761686D1A6C
:1083B00042F64042C2F200021561D268954204D2F0
:1083C00042F64042C2F20002D56008370E436660B2
:1083D0000023236042F64043C2F200039A6901324F
:1083E0009A6148F6BB63C0F2000398477B070ED042
:1083F00072B6FEE748F6BB63C0F200039847002759
:1084000005E048F6BB63C0F2000398470027380038
:10841000F8BD70B588B30300083B5B6842F6404284
:10842000C2F2000252691A4201D172B6FEE701009F
:108430000839096809B172B6FEE7083804009343A9
:10844000436048F66353C0F20003984742F6404544
:10845000C2F2000563682A69944663442B612000D8
:1084600048F25D23C0F200039847EB690133EB61EA
:1084700048F6BB63C0F20003984770BD030040F2AA
:108480009010584302300323B0FBF3F08300181818
:10849000400070470139FDD870470300083343603E
:1084A000012252428260C36003610023036070476F
:1084B00000230361704743684B609A688A609A683A
:1084C0005160996008610368013303607047036974
:1084D0004268816891608268416851605A68904240
:1084E00006D0002202611A68013A1A6018687047C3
:1084F00082685A60F5E770B582B001AA012141F2A5
:10850000342047F64143C0F20003984749F2082659
:10851000C0F2000647F62145C0F2000548F23724B4
:10852000C0F200043000A84740F2E830A047F9E765
:1085300010B582B048F26113C0F20003984740F2D0
:10854000E83048F23723C0F20003984749F21C2173
:10855000C0F2000148F2F740C0F20000002301938E
:10856000023300930023642248F67944C0F20004E9
:10857000A04748F6EF43C0F200039847C046FDE726
:1085800009B172B6FEE7704742F66043C2F20003DB
:10859000036060330B6080231360704782B0002358
:1085A000019342F20403C2F200031B68013301D0BD
:1085B00072B6FEE772B6019B002BFCD002B070478A
:1085C0004EF21002CEF20002002111604EF21803AA
:1085D000CEF20003196042F20003C2F200031B68EE
:1085E0006431B3FBF1F3013B4EF21401CEF2000112
:1085F0000B600723136070474EF60453CEF200035E
:10860000802252051A60BFF34F8FBFF36F8F704700
:1086100072B642F20403C2F200031A6801321A6011
:10862000BFF34F8FBFF36F8F704742F20403C2F264
:1086300000031B680BB972B6FEE742F20403C2F2F4
:1086400000031A68013A1A601B6803B962B67047E2
:1086500010B548F68503C0F200039847040048F6B9
:108660007353C0F20003984730B14EF60453CEF274
:108670000003802252051A60200048F68D03C0F2E4
:108680000003984710BD10B58369023B1B78012B8E
:108690001ED01BB1022B22D072B6FEE7006847F64F
:1086A0000943C0F20003984743F22013C2F20003CB
:1086B00018601B6853B143F22013C2F2000318681C
:1086C00047F63143C0F20003984710BD72B6FEE78B
:1086D000006847F65143C0F200039847F5E747F6B4
:1086E0000143C0F20003984747F62943C0F2000354
:1086F000984748F62103C0F200039847E5E730B5F4
:10870000041F80256D042560043C2260043C48F26F
:108710009D52C0F200022260043C41F21222C1F2DA
:1087200012222260043C40F20332C0F20332226083
:10873000043C40F20222C0F202222260043C40F2D9
:108740000112C0F2011222600200203A1360043AC2
:1087500041F21113C1F211131360043A41F21003F4
:10876000C1F210031360043A40F60913C0F609136E
:108770001360043A40F60803C0F608031360043A95
:1087800040F20773C0F207731360043A40F20663C5
:10879000C0F206631360043A40F20553C0F2055379
:1087A0001360043A40F20443C0F204431360030030
:1087B000443B442252421A60043B19604C38002367
:1087C000036030BD10B54EF62053CEF20003196899
:1087D000FF2212040A431A601968FF2212060A4394
:1087E0001A6048F2C153C0F20003984742F20403F2
:1087F000C2F2000300221A6048F66103C0F20003CF
:10880000984749F29103C0F20003984748F29D53FC
:10881000C0F200039847002010BD000000000000D7
:108820000B4A136818680EC80A4C216082F30B8843
:10883000022181F31488203080F30988BFF36F8F01
:108840001847C046C046C046C046C046C046C0469F
:10885000283100202031002000000000000000002E
:1088600007480068006880F3088862B6BFF34F8F3E
:10887000BFF36F8F02DFC046C046C046C046C04649
:1088800008ED00E0EFF3108072B6704780F31088B7
:108890007047000000000000000000000000000021
:1088A000EFF30981234A106878B107B5FFF7C4F9DF
:1088B0000FBC9E465A0608D51D4B1A680C3911602C
:1088C000EFF30B8273460DC10CE0194B1A682C397B
:1088D0001160EFF30B827346FDC144464D46564688
:1088E0005F46F0C172B600F0D3FB62B6104A13685F
:1088F00019680DC982F30B889E460E4A106048B174
:108900000AB4FFF795F90ABC9E465A0602D581F3D0
:10891000098870471031F0C9A046A946B246BB4647
:1089200081F309882039F0C97047C046C046C04667
:10893000283100202031002000000000000000004D
:1089400004207146084203D0EFF30980044A10471F
:10895000EFF30880024A1047C046C046C046C046F2
:108960008786000000DF704701680868002800D093
:10897000704701DF704743F22413C2F200031A6804
:108980005B68DB6A002033B943F22413C2F20003B0
:108990009B68012B00D97047002AFCD143F22413B5
:1089A000C2F20003D86E1B6FC01AF4E743F224131F
:1089B000C2F200035B6F1B684BB143F22413C2F297
:1089C00000035A6FD268D2685268DA66704743F281
:1089D0002413C2F2000301225242DA66F6E7F0B530
:1089E000D64600B582B000900F0001930A9E940015
:1089F0002200A521306B49F2F913C0F20003984719
:108A0000221F336B9C46624407239A431500002FB4
:108A10003ED03A782D33F2543B7863B101373300BE
:108A20003533300040303A781A703A781AB101374D
:108A300001338342F7D100223F23F254089F042FD1
:108A400000D90427F762B7640024F464301D48F2AB
:108A5000B14AC0F2000AD04730001830D047366122
:108A60000523DF1BB761766234654F33F454019BF5
:108A7000009A316B280048F2FF65C0F20005A84754
:108A80003060099B03B11E6002B004BC9246F0BD89
:108A900000223423F254D1E7F8B5CE46474680B5DC
:108AA000040048F21163C0F20003984743F2241314
:108AB000C2F200039A6F01329A675B68002B4FD0B5
:108AC00043F2A413C2F200035B6E6BB943F22413AA
:108AD000C2F200035B68DB6AE26A934204D843F2A5
:108AE0002413C2F200035C6043F2A412C2F200023B
:108AF000936E013393662364E26A43F22413C2F255
:108B000000031B689A4204D943F22413C2F2000303
:108B10001A60211D43F22410C2F2000008309300B5
:108B20009B189B00C01848F2B743C0F20003984757
:108B300048F22B63C0F20003984743F2A413C2F239
:108B400000035B6E43B143F22413C2F200035B687F
:108B5000DA6AE36A9A423ED30CBC90469946F8BD65
:108B600043F22413C2F200035C609B6F012BBBD164
:108B700043F22416C2F200063000083048F29B454A
:108B8000C0F20005A84730001C30A8473000303044
:108B9000A84730004430A84730005830A84740F27A
:108BA0007C09B1444846A84743F2A417C2F2000723
:108BB00040F21008B8444046A84738002430A8477F
:108BC00038003830A84738004C30A8474B46736708
:108BD00043463B6688E748F2F953C0F200039847E2
:108BE000BAE770B5040048F66913C0F2000398476D
:108BF0005523E35C2BB1012B0CD0022B09D072B6AC
:108C0000FEE7206B48F21345C0F20005A84720009C
:108C1000A84770BD200048F21343C0F200039847F4
:108C2000F7E770B586B00B9D0C9C3DB144B158265A
:108C30000496049E582E05D072B6FEE772B6FEE783
:108C400072B6FEE7049E256302265525665500256B
:108C50000395029405AD01950A9D009548F6DF1530
:108C6000C0F20005A847200048F69923C0F200038F
:108C70009847059806B070BDF0B587B0049005918F
:108C800014001F00900048F2B323C0F2000398477D
:108C9000050048B3582048F2B323C0F200039847B8
:108CA0000600D8B105630023552283540393029034
:108CB0000D9B01930C9B00933B00220005990498A7
:108CC00048F6DF14C0F20004A047300048F69923AC
:108CD000C0F200039847012007B0F0BD280048F219
:108CE0001343C0F20003984701204042F4E710B557
:108CF00088B000240594069407AA06A905A848F29E
:108D00008953C0F20003984749F22421C0F20001C0
:108D100048F6D170C0F20000059B0293069B0193B8
:108D200000940023079A48F62344C0F20004A047A9
:108D300008B908B010BD72B643F22413C2F20003A2
:108D400001225242DA6643F2A412C2F20002012169
:108D5000516600221A6748F2C573C0F200039847B3
:108D6000E7E743F2A413C2F200031A6F01321A6755
:108D70007047F0B5D6464F4680B583B043F2A41392
:108D8000C2F200031B6F002B00D088E043F22413D3
:108D9000C2F200031F6F01371F67E7B943F22413C4
:108DA000C2F200035B6F1B680BB172B6FEE743F2C1
:108DB0002412C2F20002516F43F2A413C2F2000364
:108DC000186E506719665A6F01325A6748F6AD132C
:108DD000C0F20003984743F22413C2F20003DB6E93
:108DE00000259F423AD3002543F22414C2F2000426
:108DF00048F2CF49C0F2000940F2080AA244636F6A
:108E00001B6823B3636FDB68DE687268974240D3E8
:108E1000331D01931800C847B36A13B130001830EE
:108E2000C847F36A2268934200D923609800C018AB
:108E300080005044019948F2B743C0F200039847BC
:108E40006368F26ADB6A9A42D9D30125D7E743F215
:108E50002413C2F2000301225242DA6643F22413C1
:108E6000C2F200035B68DA6A93009B189B0043F22E
:108E70002412C2F20002944663449B68012B00D97D
:108E8000012543F2A413C2F200039B6F7BB10125BD
:108E90000DE043F22413C2F20003DA66DEE743F288
:108EA000A413C2F20003DA6F0132DA67002528004A
:108EB00003B00CBC91469A46F0BDF8B5CE46474685
:108EC00080B543F2A413C2F200031B6F0BB972B654
:108ED000FEE748F21163C0F20003984743F2A4137F
:108EE000C2F200031A6F013A1A671B6F002433B9EC
:108EF00043F22413C2F200039B6F00254BB948F2E2
:108F00002B63C0F20003984720000CBC90469946A2
:108F1000F8BD43F2A417C2F2000743F22416C2F2CE
:108F2000000640F20808B0447B6A13B33B6BDD686F
:108F30002800183048F2CF49C0F20009C8472C1D5C
:108F40002000C847EB6A3268934200D9336098002A
:108F5000C01880004044210048F2B743C0F200032B
:108F600098477368DB6AEA6A9A42DDD30123BB67DC
:108F7000DAE725B148F6AD13C0F20003984743F293
:108F8000A413C2F20003DC6F9CB148F67356C0F222
:108F900000061D00012701E0013C24B1B047002874
:108FA000FAD0AF67F8E743F2A413C2F2000300223D
:108FB000DA6743F2A413C2F200039B6F0024002B74
:108FC0009DD048F2F953C0F200039847013496E768
:108FD000F0B5C64600B540F2004048F66513C0F251
:108FE0000003984743F2A414C2F2000448F2116847
:108FF000C0F2000845E048F67713C0F20003984736
:10900000012827D8E36EE3B148F2CF46C0F200064C
:10901000C047636CDF68381DB047AB6F013BAB677F
:10902000E36E013BE36648F22B63C0F2000398470E
:10903000380048F6E333C0F200039847E36E002B94
:10904000E6D1AB68012BD6D948F2F953C0F2000340
:109050009847D0E748F66353C0F20003984743F2BD
:109060002413C2F20003DA6E1B6F9A420ED348F645
:109070007713C0F20003984748F6BB63C0F20003C1
:10908000984743F22415C2F20005BBE772B6FEE72B
:1090900010B543F2A413C2F200031B6F002B46D19C
:1090A00043F2A413C2F2000300229A6743F224138E
:1090B000C2F200035B681B6B4AF2A552CAF2A552CA
:1090C0001968914206D14AF2A552CAF2A5525968CE
:1090D000914233D043F22413C2F200035868596816
:1090E000343148F28153C0F20003984743F224130D
:1090F000C2F200031B689A00D218920043F22411B6
:10910000C2F200018C466244926832BB6BB1013BF3
:109110009A00D218920043F22411C2F200018C4648
:1091200062449268CAB9002BF1D172B6FEE743F2ED
:10913000A413C2F2000301229A6710BD4AF2A5529D
:10914000CAF2A55299689142C4D14AF2A552CAF214
:10915000A552DB689342BDD1C8E79A00D1188900B7
:1091600043F22410C2F2000084466144C86840689B
:10917000C860D21892006244103290420DD043F27F
:109180002411C2F200019A00D21892008C46624467
:10919000D268D2684A600B60CFE741689A00D21863
:1091A00092006244D160EAE770B500250E4B0F4C87
:1091B000E41AA410A54209D1002500F03FF80C4C98
:1091C0000C4BE41AA410A54207D170BD064AAB00AF
:1091D0009B181B6898470135ECE7064AAB009B18C3
:1091E0001B6898470135EEE748920000489200005E
:1091F0004C9200004892000003008218934200D174
:10920000704719700133F9E768656C6C6F2C6C6DF1
:10921000207461736B310D0A000000005461736BA0
:109220002031000049444C45000000000925630935
:1092300025750925750925750D0A0000F8B5C04684
:10924000F8BC08BC9E46704721810000F8B5C046B6
:0C925000F8BC08BC9E467047F58000008A
:08925C0000093D00AAAAAAAA1C
:040000030000800079
:00000001FF
